{
    "_format": "hh-sol-artifact-1",
    "contractName": "ram",
    "sourceName": "contracts/ram.sol",
    "abi": [
        {
            "inputs": [
                {
                    "internalType": "bytes32[]",
                    "name": "_candidateList",
                    "type": "bytes32[]"
                }
            ],
            "stateMutability": "nonpayable",
            "type": "constructor"
        },
        {
            "anonymous": false,
            "inputs": [
                {
                    "indexed": true,
                    "internalType": "address",
                    "name": "voter",
                    "type": "address"
                },
                {
                    "indexed": true,
                    "internalType": "bytes32",
                    "name": "candidate",
                    "type": "bytes32"
                }
            ],
            "name": "VoteCast",
            "type": "event"
        },
        {
            "inputs": [
                {
                    "internalType": "uint256",
                    "name": "",
                    "type": "uint256"
                }
            ],
            "name": "candidateList",
            "outputs": [
                {
                    "internalType": "bytes32",
                    "name": "",
                    "type": "bytes32"
                }
            ],
            "stateMutability": "view",
            "type": "function"
        },
        {
            "inputs": [],
            "name": "getCandidates",
            "outputs": [
                {
                    "internalType": "bytes32[]",
                    "name": "",
                    "type": "bytes32[]"
                }
            ],
            "stateMutability": "view",
            "type": "function"
        },
        {
            "inputs": [
                {
                    "internalType": "address",
                    "name": "",
                    "type": "address"
                }
            ],
            "name": "hasVoted",
            "outputs": [
                {
                    "internalType": "bool",
                    "name": "",
                    "type": "bool"
                }
            ],
            "stateMutability": "view",
            "type": "function"
        },
        {
            "inputs": [
                {
                    "internalType": "bytes32",
                    "name": "_candidate",
                    "type": "bytes32"
                }
            ],
            "name": "isValidCandidate",
            "outputs": [
                {
                    "internalType": "bool",
                    "name": "",
                    "type": "bool"
                }
            ],
            "stateMutability": "view",
            "type": "function"
        },
        {
            "inputs": [
                {
                    "internalType": "bytes32",
                    "name": "_candidate",
                    "type": "bytes32"
                }
            ],
            "name": "vote",
            "outputs": [],
            "stateMutability": "nonpayable",
            "type": "function"
        },
        {
            "inputs": [
                {
                    "internalType": "bytes32",
                    "name": "",
                    "type": "bytes32"
                }
            ],
            "name": "votesReceived",
            "outputs": [
                {
                    "internalType": "uint256",
                    "name": "",
                    "type": "uint256"
                }
            ],
            "stateMutability": "view",
            "type": "function"
        }
    ],
    "bytecode": "0x60806040523480156200001157600080fd5b5060405162000b8438038062000b8483398181016040528101906200003791906200028c565b80600290805190602001906200004f92919062000057565b5050620002dd565b82805482825590600052602060002090810192821562000096579160200282015b828111156200009557825182559160200191906001019062000078565b5b509050620000a59190620000a9565b5090565b5b80821115620000c4576000816000905550600101620000aa565b5090565b6000604051905090565b600080fd5b600080fd5b600080fd5b6000601f19601f8301169050919050565b7f4e487b7100000000000000000000000000000000000000000000000000000000600052604160045260246000fd5b6200012c82620000e1565b810181811067ffffffffffffffff821117156200014e576200014d620000f2565b5b80604052505050565b600062000163620000c8565b905062000171828262000121565b919050565b600067ffffffffffffffff821115620001945762000193620000f2565b5b602082029050602081019050919050565b600080fd5b6000819050919050565b620001bf81620001aa565b8114620001cb57600080fd5b50565b600081519050620001df81620001b4565b92915050565b6000620001fc620001f68462000176565b62000157565b90508083825260208201905060208402830185811115620002225762000221620001a5565b5b835b818110156200024f57806200023a8882620001ce565b84526020840193505060208101905062000224565b5050509392505050565b600082601f830112620002715762000270620000dc565b5b815162000283848260208601620001e5565b91505092915050565b600060208284031215620002a557620002a4620000d2565b5b600082015167ffffffffffffffff811115620002c657620002c5620000d7565b5b620002d48482850162000259565b91505092915050565b61089780620002ed6000396000f3fe608060405234801561001057600080fd5b50600436106100625760003560e01c806306a49fce1461006757806309eef43e146100855780637021939f146100b55780638c1d9f30146100e5578063a69beaba14610115578063b13c744b14610131575b600080fd5b61006f610161565b60405161007c91906104da565b60405180910390f35b61009f600480360381019061009a919061055f565b6101b9565b6040516100ac91906105a7565b60405180910390f35b6100cf60048036038101906100ca91906105ee565b6101d9565b6040516100dc9190610634565b60405180910390f35b6100ff60048036038101906100fa91906105ee565b6101f1565b60405161010c91906105a7565b60405180910390f35b61012f600480360381019061012a91906105ee565b610253565b005b61014b6004803603810190610146919061067b565b6103ee565b60405161015891906106b7565b60405180910390f35b606060028054806020026020016040519081016040528092919081815260200182805480156101af57602002820191906000526020600020905b81548152602001906001019080831161019b575b5050505050905090565b60006020528060005260406000206000915054906101000a900460ff1681565b60016020528060005260406000206000915090505481565b600080600090505b60028054905081101561024857826002828154811061021b5761021a6106d2565b5b90600052602060002001540361023557600191505061024e565b808061024090610730565b9150506101f9565b50600090505b919050565b6000803373ffffffffffffffffffffffffffffffffffffffff1673ffffffffffffffffffffffffffffffffffffffff16815260200190815260200160002060009054906101000a900460ff16156102df576040517f08c379a00000000000000000000000000000000000000000000000000000000081526004016102d6906107d5565b60405180910390fd5b6102e8816101f1565b610327576040517f08c379a000000000000000000000000000000000000000000000000000000000815260040161031e90610841565b60405180910390fd5b60016000828152602001908152602001600020600081548092919061034b90610730565b919050555060016000803373ffffffffffffffffffffffffffffffffffffffff1673ffffffffffffffffffffffffffffffffffffffff16815260200190815260200160002060006101000a81548160ff021916908315150217905550803373ffffffffffffffffffffffffffffffffffffffff167fa55a6802e1be8e8b837435e17cec23b2e9cd61773bb7b073eb7e1c176cdf3d3260405160405180910390a350565b600281815481106103fe57600080fd5b906000526020600020016000915090505481565b600081519050919050565b600082825260208201905092915050565b6000819050602082019050919050565b6000819050919050565b6104518161043e565b82525050565b60006104638383610448565b60208301905092915050565b6000602082019050919050565b600061048782610412565b610491818561041d565b935061049c8361042e565b8060005b838110156104cd5781516104b48882610457565b97506104bf8361046f565b9250506001810190506104a0565b5085935050505092915050565b600060208201905081810360008301526104f4818461047c565b905092915050565b600080fd5b600073ffffffffffffffffffffffffffffffffffffffff82169050919050565b600061052c82610501565b9050919050565b61053c81610521565b811461054757600080fd5b50565b60008135905061055981610533565b92915050565b600060208284031215610575576105746104fc565b5b60006105838482850161054a565b91505092915050565b60008115159050919050565b6105a18161058c565b82525050565b60006020820190506105bc6000830184610598565b92915050565b6105cb8161043e565b81146105d657600080fd5b50565b6000813590506105e8816105c2565b92915050565b600060208284031215610604576106036104fc565b5b6000610612848285016105d9565b91505092915050565b6000819050919050565b61062e8161061b565b82525050565b60006020820190506106496000830184610625565b92915050565b6106588161061b565b811461066357600080fd5b50565b6000813590506106758161064f565b92915050565b600060208284031215610691576106906104fc565b5b600061069f84828501610666565b91505092915050565b6106b18161043e565b82525050565b60006020820190506106cc60008301846106a8565b92915050565b7f4e487b7100000000000000000000000000000000000000000000000000000000600052603260045260246000fd5b7f4e487b7100000000000000000000000000000000000000000000000000000000600052601160045260246000fd5b600061073b8261061b565b91507fffffffffffffffffffffffffffffffffffffffffffffffffffffffffffffffff820361076d5761076c610701565b5b600182019050919050565b600082825260208201905092915050565b7f596f75206861766520616c726561647920766f7465642e000000000000000000600082015250565b60006107bf601783610778565b91506107ca82610789565b602082019050919050565b600060208201905081810360008301526107ee816107b2565b9050919050565b7f496e76616c69642063616e6469646174652e0000000000000000000000000000600082015250565b600061082b601283610778565b9150610836826107f5565b602082019050919050565b6000602082019050818103600083015261085a8161081e565b905091905056fea2646970667358221220e971e57988e39304fbe19479c3c23784985ba20c2ec0f37a028335d8e62dd38164736f6c63430008110033",
    "linkReferences": {},
    "deployedLinkReferences": {}
}