{
    "_format": "hh-sol-artifact-1",
    "contractName": "AccidentRegistry",
    "sourceName": "contracts/ram1.sol",
    "abi": [
        {
            "anonymous": false,
            "inputs": [
                {
                    "indexed": true,
                    "internalType": "uint256",
                    "name": "accidentId",
                    "type": "uint256"
                },
                {
                    "indexed": false,
                    "internalType": "uint256",
                    "name": "timestamp",
                    "type": "uint256"
                },
                {
                    "indexed": false,
                    "internalType": "string",
                    "name": "location",
                    "type": "string"
                },
                {
                    "indexed": false,
                    "internalType": "string",
                    "name": "description",
                    "type": "string"
                },
                {
                    "indexed": false,
                    "internalType": "address",
                    "name": "reportedBy",
                    "type": "address"
                },
                {
                    "indexed": false,
                    "internalType": "int256",
                    "name": "latitude",
                    "type": "int256"
                },
                {
                    "indexed": false,
                    "internalType": "int256",
                    "name": "longitude",
                    "type": "int256"
                }
            ],
            "name": "AccidentReported",
            "type": "event"
        },
        {
            "inputs": [
                {
                    "internalType": "uint256",
                    "name": "",
                    "type": "uint256"
                }
            ],
            "name": "accidents",
            "outputs": [
                {
                    "internalType": "uint256",
                    "name": "timestamp",
                    "type": "uint256"
                },
                {
                    "internalType": "string",
                    "name": "location",
                    "type": "string"
                },
                {
                    "internalType": "string",
                    "name": "description",
                    "type": "string"
                },
                {
                    "internalType": "address",
                    "name": "reportedBy",
                    "type": "address"
                },
                {
                    "internalType": "int256",
                    "name": "latitude",
                    "type": "int256"
                },
                {
                    "internalType": "int256",
                    "name": "longitude",
                    "type": "int256"
                }
            ],
            "stateMutability": "view",
            "type": "function"
        },
        {
            "inputs": [
                {
                    "internalType": "uint256",
                    "name": "_accidentId",
                    "type": "uint256"
                }
            ],
            "name": "getAccident",
            "outputs": [
                {
                    "internalType": "uint256",
                    "name": "timestamp",
                    "type": "uint256"
                },
                {
                    "internalType": "string",
                    "name": "location",
                    "type": "string"
                },
                {
                    "internalType": "string",
                    "name": "description",
                    "type": "string"
                },
                {
                    "internalType": "address",
                    "name": "reportedBy",
                    "type": "address"
                },
                {
                    "internalType": "int256",
                    "name": "latitude",
                    "type": "int256"
                },
                {
                    "internalType": "int256",
                    "name": "longitude",
                    "type": "int256"
                }
            ],
            "stateMutability": "view",
            "type": "function"
        },
        {
            "inputs": [],
            "name": "getAllAccidents",
            "outputs": [
                {
                    "components": [
                        {
                            "internalType": "uint256",
                            "name": "timestamp",
                            "type": "uint256"
                        },
                        {
                            "internalType": "string",
                            "name": "location",
                            "type": "string"
                        },
                        {
                            "internalType": "string",
                            "name": "description",
                            "type": "string"
                        },
                        {
                            "internalType": "address",
                            "name": "reportedBy",
                            "type": "address"
                        },
                        {
                            "internalType": "int256",
                            "name": "latitude",
                            "type": "int256"
                        },
                        {
                            "internalType": "int256",
                            "name": "longitude",
                            "type": "int256"
                        }
                    ],
                    "internalType": "struct AccidentRegistry.Accident[]",
                    "name": "",
                    "type": "tuple[]"
                }
            ],
            "stateMutability": "view",
            "type": "function"
        },
        {
            "inputs": [],
            "name": "getTotalAccidents",
            "outputs": [
                {
                    "internalType": "uint256",
                    "name": "",
                    "type": "uint256"
                }
            ],
            "stateMutability": "view",
            "type": "function"
        },
        {
            "inputs": [
                {
                    "internalType": "string",
                    "name": "_location",
                    "type": "string"
                },
                {
                    "internalType": "string",
                    "name": "_description",
                    "type": "string"
                },
                {
                    "internalType": "int256",
                    "name": "_latitude",
                    "type": "int256"
                },
                {
                    "internalType": "int256",
                    "name": "_longitude",
                    "type": "int256"
                }
            ],
            "name": "reportAccident",
            "outputs": [],
            "stateMutability": "nonpayable",
            "type": "function"
        },
        {
            "inputs": [],
            "name": "totalAccidents",
            "outputs": [
                {
                    "internalType": "uint256",
                    "name": "",
                    "type": "uint256"
                }
            ],
            "stateMutability": "view",
            "type": "function"
        }
    ],
    "bytecode": "0x608060405234801561001057600080fd5b506111db806100206000396000f3fe608060405234801561001057600080fd5b50600436106100625760003560e01c806347d98590146100675780635c1fad081461009c57806367ea84d1146100d1578063a1ed9e0b146100ef578063c0578de11461010d578063c4d62d5c1461012b575b600080fd5b610081600480360381019061007c9190610886565b610147565b604051610093969594939291906109ac565b60405180910390f35b6100b660048036038101906100b19190610886565b6102b3565b6040516100c8969594939291906109ac565b60405180910390f35b6100d961043c565b6040516100e69190610be4565b60405180910390f35b6100f7610693565b6040516101049190610c06565b60405180910390f35b61011561069d565b6040516101229190610c06565b60405180910390f35b61014560048036038101906101409190610d82565b6106a3565b005b600060205280600052604060002060009150905080600001549080600101805461017090610e50565b80601f016020809104026020016040519081016040528092919081815260200182805461019c90610e50565b80156101e95780601f106101be576101008083540402835291602001916101e9565b820191906000526020600020905b8154815290600101906020018083116101cc57829003601f168201915b5050505050908060020180546101fe90610e50565b80601f016020809104026020016040519081016040528092919081815260200182805461022a90610e50565b80156102775780601f1061024c57610100808354040283529160200191610277565b820191906000526020600020905b81548152906001019060200180831161025a57829003601f168201915b5050505050908060030160009054906101000a900473ffffffffffffffffffffffffffffffffffffffff16908060040154908060050154905086565b60006060806000806000806000808981526020019081526020016000209050806000015481600101826002018360030160009054906101000a900473ffffffffffffffffffffffffffffffffffffffff168460040154856005015484805461031a90610e50565b80601f016020809104026020016040519081016040528092919081815260200182805461034690610e50565b80156103935780601f1061036857610100808354040283529160200191610393565b820191906000526020600020905b81548152906001019060200180831161037657829003601f168201915b505050505094508380546103a690610e50565b80601f01602080910402602001604051908101604052809291908181526020018280546103d290610e50565b801561041f5780601f106103f45761010080835404028352916020019161041f565b820191906000526020600020905b81548152906001019060200180831161040257829003601f168201915b505050505093509650965096509650965096505091939550919395565b6060600060015467ffffffffffffffff81111561045c5761045b610c2b565b5b60405190808252806020026020018201604052801561049557816020015b6104826107f0565b81526020019060019003908161047a5790505b50905060005b60015481101561068b576000808281526020019081526020016000206040518060c0016040529081600082015481526020016001820180546104dc90610e50565b80601f016020809104026020016040519081016040528092919081815260200182805461050890610e50565b80156105555780601f1061052a57610100808354040283529160200191610555565b820191906000526020600020905b81548152906001019060200180831161053857829003601f168201915b5050505050815260200160028201805461056e90610e50565b80601f016020809104026020016040519081016040528092919081815260200182805461059a90610e50565b80156105e75780601f106105bc576101008083540402835291602001916105e7565b820191906000526020600020905b8154815290600101906020018083116105ca57829003601f168201915b505050505081526020016003820160009054906101000a900473ffffffffffffffffffffffffffffffffffffffff1673ffffffffffffffffffffffffffffffffffffffff1673ffffffffffffffffffffffffffffffffffffffff1681526020016004820154815260200160058201548152505082828151811061066d5761066c610e81565b5b6020026020010181905250808061068390610edf565b91505061049b565b508091505090565b6000600154905090565b60015481565b6000600160008154809291906106b890610edf565b9190505590506040518060c001604052804281526020018681526020018581526020013373ffffffffffffffffffffffffffffffffffffffff1681526020018481526020018381525060008083815260200190815260200160002060008201518160000155602082015181600101908161073291906110d3565b50604082015181600201908161074891906110d3565b5060608201518160030160006101000a81548173ffffffffffffffffffffffffffffffffffffffff021916908373ffffffffffffffffffffffffffffffffffffffff1602179055506080820151816004015560a08201518160050155905050807f553eddd21069ba83b4585b91a89054630f5f779f3a511f2f6ab1ae2836be9efd4287873388886040516107e1969594939291906109ac565b60405180910390a25050505050565b6040518060c00160405280600081526020016060815260200160608152602001600073ffffffffffffffffffffffffffffffffffffffff16815260200160008152602001600081525090565b6000604051905090565b600080fd5b600080fd5b6000819050919050565b61086381610850565b811461086e57600080fd5b50565b6000813590506108808161085a565b92915050565b60006020828403121561089c5761089b610846565b5b60006108aa84828501610871565b91505092915050565b6108bc81610850565b82525050565b600081519050919050565b600082825260208201905092915050565b60005b838110156108fc5780820151818401526020810190506108e1565b60008484015250505050565b6000601f19601f8301169050919050565b6000610924826108c2565b61092e81856108cd565b935061093e8185602086016108de565b61094781610908565b840191505092915050565b600073ffffffffffffffffffffffffffffffffffffffff82169050919050565b600061097d82610952565b9050919050565b61098d81610972565b82525050565b6000819050919050565b6109a681610993565b82525050565b600060c0820190506109c160008301896108b3565b81810360208301526109d38188610919565b905081810360408301526109e78187610919565b90506109f66060830186610984565b610a03608083018561099d565b610a1060a083018461099d565b979650505050505050565b600081519050919050565b600082825260208201905092915050565b6000819050602082019050919050565b610a5081610850565b82525050565b600082825260208201905092915050565b6000610a72826108c2565b610a7c8185610a56565b9350610a8c8185602086016108de565b610a9581610908565b840191505092915050565b610aa981610972565b82525050565b610ab881610993565b82525050565b600060c083016000830151610ad66000860182610a47565b5060208301518482036020860152610aee8282610a67565b91505060408301518482036040860152610b088282610a67565b9150506060830151610b1d6060860182610aa0565b506080830151610b306080860182610aaf565b5060a0830151610b4360a0860182610aaf565b508091505092915050565b6000610b5a8383610abe565b905092915050565b6000602082019050919050565b6000610b7a82610a1b565b610b848185610a26565b935083602082028501610b9685610a37565b8060005b85811015610bd25784840389528151610bb38582610b4e565b9450610bbe83610b62565b925060208a01995050600181019050610b9a565b50829750879550505050505092915050565b60006020820190508181036000830152610bfe8184610b6f565b905092915050565b6000602082019050610c1b60008301846108b3565b92915050565b600080fd5b600080fd5b7f4e487b7100000000000000000000000000000000000000000000000000000000600052604160045260246000fd5b610c6382610908565b810181811067ffffffffffffffff82111715610c8257610c81610c2b565b5b80604052505050565b6000610c9561083c565b9050610ca18282610c5a565b919050565b600067ffffffffffffffff821115610cc157610cc0610c2b565b5b610cca82610908565b9050602081019050919050565b82818337600083830152505050565b6000610cf9610cf484610ca6565b610c8b565b905082815260208101848484011115610d1557610d14610c26565b5b610d20848285610cd7565b509392505050565b600082601f830112610d3d57610d3c610c21565b5b8135610d4d848260208601610ce6565b91505092915050565b610d5f81610993565b8114610d6a57600080fd5b50565b600081359050610d7c81610d56565b92915050565b60008060008060808587031215610d9c57610d9b610846565b5b600085013567ffffffffffffffff811115610dba57610db961084b565b5b610dc687828801610d28565b945050602085013567ffffffffffffffff811115610de757610de661084b565b5b610df387828801610d28565b9350506040610e0487828801610d6d565b9250506060610e1587828801610d6d565b91505092959194509250565b7f4e487b7100000000000000000000000000000000000000000000000000000000600052602260045260246000fd5b60006002820490506001821680610e6857607f821691505b602082108103610e7b57610e7a610e21565b5b50919050565b7f4e487b7100000000000000000000000000000000000000000000000000000000600052603260045260246000fd5b7f4e487b7100000000000000000000000000000000000000000000000000000000600052601160045260246000fd5b6000610eea82610850565b91507fffffffffffffffffffffffffffffffffffffffffffffffffffffffffffffffff8203610f1c57610f1b610eb0565b5b600182019050919050565b60008190508160005260206000209050919050565b60006020601f8301049050919050565b600082821b905092915050565b600060088302610f897fffffffffffffffffffffffffffffffffffffffffffffffffffffffffffffffff82610f4c565b610f938683610f4c565b95508019841693508086168417925050509392505050565b6000819050919050565b6000610fd0610fcb610fc684610850565b610fab565b610850565b9050919050565b6000819050919050565b610fea83610fb5565b610ffe610ff682610fd7565b848454610f59565b825550505050565b600090565b611013611006565b61101e818484610fe1565b505050565b5b818110156110425761103760008261100b565b600181019050611024565b5050565b601f8211156110875761105881610f27565b61106184610f3c565b81016020851015611070578190505b61108461107c85610f3c565b830182611023565b50505b505050565b600082821c905092915050565b60006110aa6000198460080261108c565b1980831691505092915050565b60006110c38383611099565b9150826002028217905092915050565b6110dc826108c2565b67ffffffffffffffff8111156110f5576110f4610c2b565b5b6110ff8254610e50565b61110a828285611046565b600060209050601f83116001811461113d576000841561112b578287015190505b61113585826110b7565b86555061119d565b601f19841661114b86610f27565b60005b828110156111735784890151825560018201915060208501945060208101905061114e565b86831015611190578489015161118c601f891682611099565b8355505b6001600288020188555050505b50505050505056fea264697066735822122054364746b816d8d6bdcf4057b64a63041c1d2971f6d81761030ca104ee991fb464736f6c63430008110033",
    "linkReferences": {},
    "deployedLinkReferences": {}
}